{
  "contractName": "token",
  "abi": [
    {
      "constant": false,
      "inputs": [],
      "name": "generateTokens",
      "outputs": [],
      "payable": false,
      "stateMutability": "nonpayable",
      "type": "function"
    },
    {
      "constant": false,
      "inputs": [
        {
          "name": "_receiver",
          "type": "address"
        },
        {
          "name": "_amount",
          "type": "uint256"
        }
      ],
      "name": "transfer",
      "outputs": [],
      "payable": false,
      "stateMutability": "nonpayable",
      "type": "function"
    },
    {
      "constant": true,
      "inputs": [
        {
          "name": "_owner",
          "type": "address"
        }
      ],
      "name": "getBalance",
      "outputs": [
        {
          "name": "",
          "type": "uint256"
        }
      ],
      "payable": false,
      "stateMutability": "view",
      "type": "function"
    }
  ],
  "bytecode": "0x608060405234801561001057600080fd5b50610292806100206000396000f3fe608060405260043610610057576000357c0100000000000000000000000000000000000000000000000000000000900463ffffffff168063a5e330481461005c578063a9059cbb14610073578063f8b2cb4f146100ce575b600080fd5b34801561006857600080fd5b50610071610133565b005b34801561007f57600080fd5b506100cc6004803603604081101561009657600080fd5b81019080803573ffffffffffffffffffffffffffffffffffffffff16906020019092919080359060200190929190505050610182565b005b3480156100da57600080fd5b5061011d600480360360208110156100f157600080fd5b81019080803573ffffffffffffffffffffffffffffffffffffffff16906020019092919050505061021e565b6040518082815260200191505060405180910390f35b600a6000803373ffffffffffffffffffffffffffffffffffffffff1673ffffffffffffffffffffffffffffffffffffffff16815260200190815260200160002060008282540192505081905550565b806000803373ffffffffffffffffffffffffffffffffffffffff1673ffffffffffffffffffffffffffffffffffffffff16815260200190815260200160002060008282540392505081905550806000808473ffffffffffffffffffffffffffffffffffffffff1673ffffffffffffffffffffffffffffffffffffffff168152602001908152602001600020600082825401925050819055505050565b60008060008373ffffffffffffffffffffffffffffffffffffffff1673ffffffffffffffffffffffffffffffffffffffff16815260200190815260200160002054905091905056fea165627a7a723058204137e551e0c7bada8544d13743e256de672b7ac7f06b1ebaccefd5b9d09a69e10029",
  "source": "pragma solidity ^0.5.0;\n\ncontract token{\n\tmapping (address => uint) balances;\n\n\tfunction generateTokens() public{\n\t\tbalances[msg.sender]+=10;\n\t}\n\n\tfunction transfer(address _receiver, uint _amount) public{\n\t\tbalances[msg.sender]-=_amount;\n\t\tbalances[_receiver]+=_amount;\n\t}\n\n\tfunction getBalance(address _owner)public view returns(uint){\n\t\treturn balances[_owner];\n\t}\n}",
  "sourcePath": "/Users/igormarcos/ethereumtesting/class1/contracts/token.sol",
  "compiler": {
    "name": "solc",
    "version": "0.5.0+commit.1d4f565a.Emscripten.clang"
  },
  "schemaVersion": "3.0.1",
  "updatedAt": "2019-02-17T21:13:04.537Z",
  "devdoc": {
    "methods": {}
  },
  "userdoc": {
    "methods": {}
  }
}